{
    "_format": "hh-sol-artifact-1",
    "contractName": "FoxPunksMinter",
    "sourceName": "contracts/FoxPunksMinter.sol",
    "abi": [
        {
            "inputs": [
                {
                    "internalType": "contract IFoxPunks",
                    "name": "_foxPunks",
                    "type": "address"
                },
                {
                    "internalType": "uint256",
                    "name": "_mintPrice",
                    "type": "uint256"
                }
            ],
            "stateMutability": "nonpayable",
            "type": "constructor"
        },
        {
            "anonymous": false,
            "inputs": [
                {
                    "indexed": true,
                    "internalType": "address",
                    "name": "previousOwner",
                    "type": "address"
                },
                {
                    "indexed": true,
                    "internalType": "address",
                    "name": "newOwner",
                    "type": "address"
                }
            ],
            "name": "OwnershipTransferred",
            "type": "event"
        },
        {
            "anonymous": false,
            "inputs": [
                {
                    "indexed": false,
                    "internalType": "uint256",
                    "name": "limit",
                    "type": "uint256"
                }
            ],
            "name": "SetLimit",
            "type": "event"
        },
        {
            "anonymous": false,
            "inputs": [
                {
                    "indexed": false,
                    "internalType": "uint256",
                    "name": "mintPrice",
                    "type": "uint256"
                }
            ],
            "name": "SetMintPrice",
            "type": "event"
        },
        {
            "inputs": [
                {
                    "internalType": "address[]",
                    "name": "blackuser",
                    "type": "address[]"
                }
            ],
            "name": "addBlacklist",
            "outputs": [],
            "stateMutability": "nonpayable",
            "type": "function"
        },
        {
            "inputs": [],
            "name": "foxPunks",
            "outputs": [
                {
                    "internalType": "contract IFoxPunks",
                    "name": "",
                    "type": "address"
                }
            ],
            "stateMutability": "view",
            "type": "function"
        },
        {
            "inputs": [],
            "name": "limit",
            "outputs": [
                {
                    "internalType": "uint256",
                    "name": "",
                    "type": "uint256"
                }
            ],
            "stateMutability": "view",
            "type": "function"
        },
        {
            "inputs": [],
            "name": "mint",
            "outputs": [
                {
                    "internalType": "uint256",
                    "name": "id",
                    "type": "uint256"
                }
            ],
            "stateMutability": "payable",
            "type": "function"
        },
        {
            "inputs": [],
            "name": "mintPrice",
            "outputs": [
                {
                    "internalType": "uint256",
                    "name": "",
                    "type": "uint256"
                }
            ],
            "stateMutability": "view",
            "type": "function"
        },
        {
            "inputs": [],
            "name": "owner",
            "outputs": [
                {
                    "internalType": "address",
                    "name": "",
                    "type": "address"
                }
            ],
            "stateMutability": "view",
            "type": "function"
        },
        {
            "inputs": [
                {
                    "internalType": "address[]",
                    "name": "blackuser",
                    "type": "address[]"
                }
            ],
            "name": "removeBlacklist",
            "outputs": [],
            "stateMutability": "nonpayable",
            "type": "function"
        },
        {
            "inputs": [],
            "name": "renounceOwnership",
            "outputs": [],
            "stateMutability": "nonpayable",
            "type": "function"
        },
        {
            "inputs": [
                {
                    "internalType": "uint256",
                    "name": "_limit",
                    "type": "uint256"
                }
            ],
            "name": "setLimit",
            "outputs": [],
            "stateMutability": "nonpayable",
            "type": "function"
        },
        {
            "inputs": [
                {
                    "internalType": "uint256",
                    "name": "_price",
                    "type": "uint256"
                }
            ],
            "name": "setMintPrice",
            "outputs": [],
            "stateMutability": "nonpayable",
            "type": "function"
        },
        {
            "inputs": [
                {
                    "internalType": "address",
                    "name": "newOwner",
                    "type": "address"
                }
            ],
            "name": "transferOwnership",
            "outputs": [],
            "stateMutability": "nonpayable",
            "type": "function"
        },
        {
            "inputs": [],
            "name": "withdraw",
            "outputs": [],
            "stateMutability": "nonpayable",
            "type": "function"
        }
    ],
    "bytecode": "0x60a060405234801561001057600080fd5b50604051610a6e380380610a6e83398101604081905261002f916100d4565b61003833610084565b6001600160a01b03821660805260018190556040518181527f02ebcb79e897ca3a22313ba6de8fc964409964de565fb4bb6a0927871756b88c9060200160405180910390a1505061010e565b600080546001600160a01b038381166001600160a01b0319831681178455604051919092169283917f8be0079c531659141344cd1fd0a4f28419497f9722a3daafe3b4186f6b6457e09190a35050565b600080604083850312156100e757600080fd5b82516001600160a01b03811681146100fe57600080fd5b6020939093015192949293505050565b6080516109386101366000396000818160fb01528181610230015261035601526109386000f3fe6080604052600436106100a75760003560e01c8063715018a611610064578063715018a6146101805780637911ef9d146101955780638da5cb5b146101b5578063a4d66daf146101d3578063f2fde38b146101e9578063f4a0a5281461020957600080fd5b80631249c58b146100ac57806327ea6f2b146100c75780632c867cf1146100e95780633ccfd60b146101355780633d2cc56c1461014a5780636817c76c1461016a575b600080fd5b6100b4610229565b6040519081526020015b60405180910390f35b3480156100d357600080fd5b506100e76100e2366004610746565b6103df565b005b3480156100f557600080fd5b5061011d7f000000000000000000000000000000000000000000000000000000000000000081565b6040516001600160a01b0390911681526020016100be565b34801561014157600080fd5b506100e7610445565b34801561015657600080fd5b506100e7610165366004610791565b61049e565b34801561017657600080fd5b506100b460015481565b34801561018c57600080fd5b506100e7610536565b3480156101a157600080fd5b506100e76101b0366004610791565b61056c565b3480156101c157600080fd5b506000546001600160a01b031661011d565b3480156101df57600080fd5b506100b460025481565b3480156101f557600080fd5b506100e7610204366004610856565b6105ff565b34801561021557600080fd5b506100e7610224366004610746565b610697565b60006002547f00000000000000000000000000000000000000000000000000000000000000006001600160a01b03166318160ddd6040518163ffffffff1660e01b815260040160206040518083038186803b15801561028757600080fd5b505afa15801561029b573d6000803e3d6000fd5b505050506040513d601f19601f820116820180604052508101906102bf9190610878565b106103115760405162461bcd60e51b815260206004820152601e60248201527f466f7850756e6b734d696e7465723a204c696d6974206578636565646564000060448201526064015b60405180910390fd5b600154341461031f57600080fd5b3360009081526003602052604090205460ff1615156001141561034157600080fd5b6040516335313c2160e11b81523360048201527f00000000000000000000000000000000000000000000000000000000000000006001600160a01b031690636a62784290602401602060405180830381600087803b1580156103a257600080fd5b505af11580156103b6573d6000803e3d6000fd5b505050506040513d601f19601f820116820180604052508101906103da9190610878565b905090565b6000546001600160a01b031633146104095760405162461bcd60e51b815260040161030890610891565b60028190556040518181527f479881bf41e329f328c21c2cbb11514b05a021cd33ea4e5a576ea6bc03874fd6906020015b60405180910390a150565b6000546001600160a01b0316331461046f5760405162461bcd60e51b815260040161030890610891565b60405133904780156108fc02916000818181858888f1935050505015801561049b573d6000803e3d6000fd5b50565b6000546001600160a01b031633146104c85760405162461bcd60e51b815260040161030890610891565b805160005b81811015610531576001600360008584815181106104ed576104ed6108c6565b6020908102919091018101516001600160a01b03168252810191909152604001600020805460ff191691151591909117905561052a6001826108dc565b90506104cd565b505050565b6000546001600160a01b031633146105605760405162461bcd60e51b815260040161030890610891565b61056a60006106f6565b565b6000546001600160a01b031633146105965760405162461bcd60e51b815260040161030890610891565b805160005b81811015610531576000600360008584815181106105bb576105bb6108c6565b6020908102919091018101516001600160a01b03168252810191909152604001600020805460ff19169115159190911790556105f86001826108dc565b905061059b565b6000546001600160a01b031633146106295760405162461bcd60e51b815260040161030890610891565b6001600160a01b03811661068e5760405162461bcd60e51b815260206004820152602660248201527f4f776e61626c653a206e6577206f776e657220697320746865207a65726f206160448201526564647265737360d01b6064820152608401610308565b61049b816106f6565b6000546001600160a01b031633146106c15760405162461bcd60e51b815260040161030890610891565b60018190556040518181527f02ebcb79e897ca3a22313ba6de8fc964409964de565fb4bb6a0927871756b88c9060200161043a565b600080546001600160a01b038381166001600160a01b0319831681178455604051919092169283917f8be0079c531659141344cd1fd0a4f28419497f9722a3daafe3b4186f6b6457e09190a35050565b60006020828403121561075857600080fd5b5035919050565b634e487b7160e01b600052604160045260246000fd5b80356001600160a01b038116811461078c57600080fd5b919050565b600060208083850312156107a457600080fd5b823567ffffffffffffffff808211156107bc57600080fd5b818501915085601f8301126107d057600080fd5b8135818111156107e2576107e261075f565b8060051b604051601f19603f830116810181811085821117156108075761080761075f565b60405291825284820192508381018501918883111561082557600080fd5b938501935b8285101561084a5761083b85610775565b8452938501939285019261082a565b98975050505050505050565b60006020828403121561086857600080fd5b61087182610775565b9392505050565b60006020828403121561088a57600080fd5b5051919050565b6020808252818101527f4f776e61626c653a2063616c6c6572206973206e6f7420746865206f776e6572604082015260600190565b634e487b7160e01b600052603260045260246000fd5b600082198211156108fd57634e487b7160e01b600052601160045260246000fd5b50019056fea2646970667358221220d1832b1a3dcaee6f63f6203e8e9a0d62fddd81c00d68dda8423d0a70dade230f64736f6c63430008090033",
    "linkReferences": {},
    "deployedLinkReferences": {}
}